{
  "contractName": "TodoList",
  "abi": [
    {
      "inputs": [
        {
          "internalType": "address",
          "name": "_owner",
          "type": "address"
        }
      ],
      "stateMutability": "nonpayable",
      "type": "constructor"
    },
    {
      "anonymous": false,
      "inputs": [
        {
          "indexed": false,
          "internalType": "string",
          "name": "status",
          "type": "string"
        }
      ],
      "name": "ListUpdated",
      "type": "event"
    },
    {
      "inputs": [],
      "name": "owner",
      "outputs": [
        {
          "internalType": "address",
          "name": "",
          "type": "address"
        }
      ],
      "stateMutability": "view",
      "type": "function"
    },
    {
      "inputs": [
        {
          "internalType": "string",
          "name": "_task",
          "type": "string"
        }
      ],
      "name": "createTask",
      "outputs": [],
      "stateMutability": "nonpayable",
      "type": "function"
    },
    {
      "inputs": [
        {
          "internalType": "uint256",
          "name": "_id",
          "type": "uint256"
        }
      ],
      "name": "deleteTask",
      "outputs": [],
      "stateMutability": "nonpayable",
      "type": "function"
    },
    {
      "inputs": [
        {
          "internalType": "uint256",
          "name": "_id",
          "type": "uint256"
        }
      ],
      "name": "doneUndoneTask",
      "outputs": [],
      "stateMutability": "nonpayable",
      "type": "function"
    },
    {
      "inputs": [],
      "name": "getLastTaskId",
      "outputs": [
        {
          "internalType": "int256",
          "name": "",
          "type": "int256"
        }
      ],
      "stateMutability": "view",
      "type": "function"
    },
    {
      "inputs": [
        {
          "internalType": "uint256",
          "name": "_id",
          "type": "uint256"
        }
      ],
      "name": "getTask",
      "outputs": [
        {
          "internalType": "uint256",
          "name": "",
          "type": "uint256"
        },
        {
          "internalType": "string",
          "name": "",
          "type": "string"
        },
        {
          "internalType": "bool",
          "name": "",
          "type": "bool"
        }
      ],
      "stateMutability": "view",
      "type": "function"
    }
  ],
  "bytecode": "0x60806040523480156200001157600080fd5b5060405162001249380380620012498339818101604052810190620000379190620000e8565b806000806101000a81548173ffffffffffffffffffffffffffffffffffffffff021916908373ffffffffffffffffffffffffffffffffffffffff160217905550506200011a565b600080fd5b600073ffffffffffffffffffffffffffffffffffffffff82169050919050565b6000620000b08262000083565b9050919050565b620000c281620000a3565b8114620000ce57600080fd5b50565b600081519050620000e281620000b7565b92915050565b6000602082840312156200010157620001006200007e565b5b60006200011184828501620000d1565b91505092915050565b61111f806200012a6000396000f3fe608060405234801561001057600080fd5b50600436106100625760003560e01c8063111002aa146100675780631d65e77e14610083578063560f3192146100b55780638da5cb5b146100d15780638db4cd73146100ef578063d83e45c91461010d575b600080fd5b610081600480360381019061007c9190610ac5565b610129565b005b61009d60048036038101906100989190610b44565b610281565b6040516100ac93929190610c23565b60405180910390f35b6100cf60048036038101906100ca9190610b44565b610476565b005b6100d9610640565b6040516100e69190610ca2565b60405180910390f35b6100f7610664565b6040516101049190610cd6565b60405180910390f35b61012760048036038101906101229190610b44565b61067c565b005b60008054906101000a900473ffffffffffffffffffffffffffffffffffffffff1673ffffffffffffffffffffffffffffffffffffffff163373ffffffffffffffffffffffffffffffffffffffff16146101b7576040517f08c379a00000000000000000000000000000000000000000000000000000000081526004016101ae90610d63565b60405180910390fd5b600160405180606001604052804281526020018381526020016000151581525090806001815401808255809150506001900390600052602060002090600302016000909190919091506000820151816000015560208201518160010190805190602001906102269291906107fb565b5060408201518160020160006101000a81548160ff02191690831515021790555050507f366fb270101ef4aa68643984ae611bdef88429241b5dab77ed0df0c28cfaec0260405161027690610dcf565b60405180910390a150565b6000606060008060009054906101000a900473ffffffffffffffffffffffffffffffffffffffff1673ffffffffffffffffffffffffffffffffffffffff163373ffffffffffffffffffffffffffffffffffffffff1614610316576040517f08c379a000000000000000000000000000000000000000000000000000000000815260040161030d90610d63565b60405180910390fd5b83600180549050811061035e576040517f08c379a000000000000000000000000000000000000000000000000000000000815260040161035590610e3b565b60405180910390fd5b6001858154811061037257610371610e5b565b5b9060005260206000209060030201600001546001868154811061039857610397610e5b565b5b9060005260206000209060030201600101600187815481106103bd576103bc610e5b565b5b906000526020600020906003020160020160009054906101000a900460ff168180546103e890610eb9565b80601f016020809104026020016040519081016040528092919081815260200182805461041490610eb9565b80156104615780601f1061043657610100808354040283529160200191610461565b820191906000526020600020905b81548152906001019060200180831161044457829003601f168201915b50505050509150935093509350509193909250565b60008054906101000a900473ffffffffffffffffffffffffffffffffffffffff1673ffffffffffffffffffffffffffffffffffffffff163373ffffffffffffffffffffffffffffffffffffffff1614610504576040517f08c379a00000000000000000000000000000000000000000000000000000000081526004016104fb90610d63565b60405180910390fd5b60018080805490506105169190610f1a565b8154811061052757610526610e5b565b5b90600052602060002090600302016001828154811061054957610548610e5b565b5b906000526020600020906003020160008201548160000155600182018160010190805461057590610eb9565b610580929190610881565b506002820160009054906101000a900460ff168160020160006101000a81548160ff02191690831515021790555090505060018054806105c3576105c2610f4e565b5b60019003818190600052602060002090600302016000808201600090556001820160006105f0919061090e565b6002820160006101000a81549060ff0219169055505090557f366fb270101ef4aa68643984ae611bdef88429241b5dab77ed0df0c28cfaec0260405161063590610fc9565b60405180910390a150565b60008054906101000a900473ffffffffffffffffffffffffffffffffffffffff1681565b6000600180805490506106779190610fe9565b905090565b60008054906101000a900473ffffffffffffffffffffffffffffffffffffffff1673ffffffffffffffffffffffffffffffffffffffff163373ffffffffffffffffffffffffffffffffffffffff161461070a576040517f08c379a000000000000000000000000000000000000000000000000000000000815260040161070190610d63565b60405180910390fd5b806001805490508110610752576040517f08c379a000000000000000000000000000000000000000000000000000000000815260040161074990610e3b565b60405180910390fd5b6001828154811061076657610765610e5b565b5b906000526020600020906003020160020160009054906101000a900460ff16156001838154811061079a57610799610e5b565b5b906000526020600020906003020160020160006101000a81548160ff0219169083151502179055507f366fb270101ef4aa68643984ae611bdef88429241b5dab77ed0df0c28cfaec026040516107ef906110c9565b60405180910390a15050565b82805461080790610eb9565b90600052602060002090601f0160209004810192826108295760008555610870565b82601f1061084257805160ff1916838001178555610870565b82800160010185558215610870579182015b8281111561086f578251825591602001919060010190610854565b5b50905061087d919061094e565b5090565b82805461088d90610eb9565b90600052602060002090601f0160209004810192826108af57600085556108fd565b82601f106108c057805485556108fd565b828001600101855582156108fd57600052602060002091601f016020900482015b828111156108fc5782548255916001019190600101906108e1565b5b50905061090a919061094e565b5090565b50805461091a90610eb9565b6000825580601f1061092c575061094b565b601f01602090049060005260206000209081019061094a919061094e565b5b50565b5b8082111561096757600081600090555060010161094f565b5090565b6000604051905090565b600080fd5b600080fd5b600080fd5b600080fd5b6000601f19601f8301169050919050565b7f4e487b7100000000000000000000000000000000000000000000000000000000600052604160045260246000fd5b6109d282610989565b810181811067ffffffffffffffff821117156109f1576109f061099a565b5b80604052505050565b6000610a0461096b565b9050610a1082826109c9565b919050565b600067ffffffffffffffff821115610a3057610a2f61099a565b5b610a3982610989565b9050602081019050919050565b82818337600083830152505050565b6000610a68610a6384610a15565b6109fa565b905082815260208101848484011115610a8457610a83610984565b5b610a8f848285610a46565b509392505050565b600082601f830112610aac57610aab61097f565b5b8135610abc848260208601610a55565b91505092915050565b600060208284031215610adb57610ada610975565b5b600082013567ffffffffffffffff811115610af957610af861097a565b5b610b0584828501610a97565b91505092915050565b6000819050919050565b610b2181610b0e565b8114610b2c57600080fd5b50565b600081359050610b3e81610b18565b92915050565b600060208284031215610b5a57610b59610975565b5b6000610b6884828501610b2f565b91505092915050565b610b7a81610b0e565b82525050565b600081519050919050565b600082825260208201905092915050565b60005b83811015610bba578082015181840152602081019050610b9f565b83811115610bc9576000848401525b50505050565b6000610bda82610b80565b610be48185610b8b565b9350610bf4818560208601610b9c565b610bfd81610989565b840191505092915050565b60008115159050919050565b610c1d81610c08565b82525050565b6000606082019050610c386000830186610b71565b8181036020830152610c4a8185610bcf565b9050610c596040830184610c14565b949350505050565b600073ffffffffffffffffffffffffffffffffffffffff82169050919050565b6000610c8c82610c61565b9050919050565b610c9c81610c81565b82525050565b6000602082019050610cb76000830184610c93565b92915050565b6000819050919050565b610cd081610cbd565b82525050565b6000602082019050610ceb6000830184610cc7565b92915050565b7f4f6e6c79206f776e65722063616e2063616c6c20746869732066756e6374696f60008201527f6e00000000000000000000000000000000000000000000000000000000000000602082015250565b6000610d4d602183610b8b565b9150610d5882610cf1565b604082019050919050565b60006020820190508181036000830152610d7c81610d40565b9050919050565b7f6372656174656400000000000000000000000000000000000000000000000000600082015250565b6000610db9600783610b8b565b9150610dc482610d83565b602082019050919050565b60006020820190508181036000830152610de881610dac565b9050919050565b7f5461736b20646f65736e27742065786973740000000000000000000000000000600082015250565b6000610e25601283610b8b565b9150610e3082610def565b602082019050919050565b60006020820190508181036000830152610e5481610e18565b9050919050565b7f4e487b7100000000000000000000000000000000000000000000000000000000600052603260045260246000fd5b7f4e487b7100000000000000000000000000000000000000000000000000000000600052602260045260246000fd5b60006002820490506001821680610ed157607f821691505b60208210811415610ee557610ee4610e8a565b5b50919050565b7f4e487b7100000000000000000000000000000000000000000000000000000000600052601160045260246000fd5b6000610f2582610b0e565b9150610f3083610b0e565b925082821015610f4357610f42610eeb565b5b828203905092915050565b7f4e487b7100000000000000000000000000000000000000000000000000000000600052603160045260246000fd5b7f64656c6574656400000000000000000000000000000000000000000000000000600082015250565b6000610fb3600783610b8b565b9150610fbe82610f7d565b602082019050919050565b60006020820190508181036000830152610fe281610fa6565b9050919050565b6000610ff482610cbd565b9150610fff83610cbd565b9250827f80000000000000000000000000000000000000000000000000000000000000000182126000841215161561103a57611039610eeb565b5b827f7fffffffffffffffffffffffffffffffffffffffffffffffffffffffffffffff01821360008412161561107257611071610eeb565b5b828203905092915050565b7f646f6e6500000000000000000000000000000000000000000000000000000000600082015250565b60006110b3600483610b8b565b91506110be8261107d565b602082019050919050565b600060208201905081810360008301526110e2816110a6565b905091905056fea2646970667358221220b85245059945b732c252ca5f9b3a87c6f591110893a1afc99e577406976bcd4364736f6c63430008090033",
  "immutableReferences": {},
  "source": "// SPDX-License-Identifier: MIT\npragma solidity >=0.5.0 <0.9.0;\n\ncontract TodoList {\n    address public owner;\n    struct Task {\n        uint date;\n        string content;\n        bool done;\n    }\n    Task[] tasks;\n\n    constructor(address _owner) {\n        owner = _owner;\n    }\n\n    event ListUpdated(string status);\n\n    modifier onlyOwner {\n        require(msg.sender  == owner, \"Only owner can call this function\");\n        _;\n    }\n\n    modifier taskExist(uint id) {\n        require(id < tasks.length, \"Task doesn't exist\");\n        _;\n    }\n\n    function createTask(string memory _task) public onlyOwner {\n        tasks.push(Task(block.timestamp, _task, false));\n        emit ListUpdated(\"created\");\n    }\n    \n    function deleteTask(uint _id) public onlyOwner {\n        tasks[_id] = tasks[tasks.length - 1];\n        tasks.pop();\n        emit ListUpdated(\"deleted\");\n    }\n\n    function doneUndoneTask(uint _id) public onlyOwner taskExist(_id) {\n        tasks[_id].done = !tasks[_id].done;\n        emit ListUpdated(\"done\");\n    }\n\n    function getLastTaskId() public view returns(int) {\n        return int(tasks.length) - 1;\n    }\n\n    function getTask(uint _id) public view onlyOwner taskExist(_id)\n    returns(\n        uint,\n        string memory,\n        bool\n    ) {\n        return(\n            tasks[_id].date,\n            tasks[_id].content,\n            tasks[_id].done\n        );\n    }\n}\n",
  "sourcePath": "/home/kirill/workspace/todo_project/contracts/TodoList.sol",
  "compiler": {
    "name": "solc",
    "version": "0.8.9+commit.e5eed63a.Emscripten.clang"
  },
  "schemaVersion": "3.4.3",
  "updatedAt": "2021-10-28T11:30:55.627Z",
  "devdoc": {
    "kind": "dev",
    "methods": {},
    "version": 1
  },
  "userdoc": {
    "kind": "user",
    "methods": {},
    "version": 1
  }
}